{
  "address": "0xCc19F29c5d603ccCd7111CD6E48b94F0E738b4aC",
  "abi": [
    {
      "inputs": [
        {
          "internalType": "contract IWorldID",
          "name": "_worldId",
          "type": "address"
        },
        {
          "internalType": "string",
          "name": "_appId",
          "type": "string"
        },
        {
          "internalType": "string",
          "name": "_actionId",
          "type": "string"
        }
      ],
      "stateMutability": "nonpayable",
      "type": "constructor"
    },
    {
      "inputs": [],
      "name": "InvalidNullifier",
      "type": "error"
    },
    {
      "anonymous": false,
      "inputs": [
        {
          "indexed": true,
          "internalType": "address",
          "name": "employer",
          "type": "address"
        }
      ],
      "name": "EmployerRegistered",
      "type": "event"
    },
    {
      "anonymous": false,
      "inputs": [
        {
          "indexed": true,
          "internalType": "address",
          "name": "patient",
          "type": "address"
        }
      ],
      "name": "WorkerRegistered",
      "type": "event"
    },
    {
      "inputs": [
        {
          "internalType": "address",
          "name": "worker",
          "type": "address"
        },
        {
          "internalType": "uint256",
          "name": "index",
          "type": "uint256"
        }
      ],
      "name": "acceptWorker",
      "outputs": [],
      "stateMutability": "nonpayable",
      "type": "function"
    },
    {
      "inputs": [
        {
          "internalType": "address",
          "name": "employer",
          "type": "address"
        }
      ],
      "name": "addDefaultJobOffer",
      "outputs": [],
      "stateMutability": "nonpayable",
      "type": "function"
    },
    {
      "inputs": [
        {
          "internalType": "address",
          "name": "employer",
          "type": "address"
        },
        {
          "internalType": "address",
          "name": "worker",
          "type": "address"
        }
      ],
      "name": "addDefaultJobOfferWithWorker",
      "outputs": [],
      "stateMutability": "nonpayable",
      "type": "function"
    },
    {
      "inputs": [
        {
          "internalType": "address",
          "name": "adr",
          "type": "address"
        }
      ],
      "name": "addDefaultValuesEmployer",
      "outputs": [],
      "stateMutability": "nonpayable",
      "type": "function"
    },
    {
      "inputs": [
        {
          "internalType": "address",
          "name": "adr",
          "type": "address"
        }
      ],
      "name": "addDefaultValuesWorker",
      "outputs": [],
      "stateMutability": "nonpayable",
      "type": "function"
    },
    {
      "inputs": [
        {
          "internalType": "uint256",
          "name": "stablecoinSalary",
          "type": "uint256"
        },
        {
          "internalType": "uint256",
          "name": "tokenSalary",
          "type": "uint256"
        }
      ],
      "name": "addJobOffer",
      "outputs": [],
      "stateMutability": "nonpayable",
      "type": "function"
    },
    {
      "inputs": [
        {
          "internalType": "address",
          "name": "employer",
          "type": "address"
        },
        {
          "internalType": "uint256",
          "name": "index",
          "type": "uint256"
        }
      ],
      "name": "applyForJob",
      "outputs": [],
      "stateMutability": "nonpayable",
      "type": "function"
    },
    {
      "inputs": [
        {
          "internalType": "uint256",
          "name": "index",
          "type": "uint256"
        }
      ],
      "name": "deactivateJob",
      "outputs": [],
      "stateMutability": "nonpayable",
      "type": "function"
    },
    {
      "inputs": [
        {
          "internalType": "address",
          "name": "",
          "type": "address"
        }
      ],
      "name": "employers",
      "outputs": [
        {
          "internalType": "bool",
          "name": "",
          "type": "bool"
        }
      ],
      "stateMutability": "view",
      "type": "function"
    },
    {
      "inputs": [
        {
          "internalType": "address",
          "name": "employer",
          "type": "address"
        },
        {
          "internalType": "uint256",
          "name": "index",
          "type": "uint256"
        }
      ],
      "name": "getJobApplicants",
      "outputs": [
        {
          "internalType": "address[]",
          "name": "",
          "type": "address[]"
        }
      ],
      "stateMutability": "view",
      "type": "function"
    },
    {
      "inputs": [
        {
          "internalType": "address",
          "name": "employer",
          "type": "address"
        }
      ],
      "name": "getJobs",
      "outputs": [
        {
          "components": [
            {
              "internalType": "address",
              "name": "employer",
              "type": "address"
            },
            {
              "components": [
                {
                  "internalType": "uint256",
                  "name": "amount",
                  "type": "uint256"
                },
                {
                  "internalType": "contract IERC20",
                  "name": "token",
                  "type": "address"
                }
              ],
              "internalType": "struct WorldWork.Salary",
              "name": "stablecoinSalary",
              "type": "tuple"
            },
            {
              "components": [
                {
                  "internalType": "uint256",
                  "name": "amount",
                  "type": "uint256"
                },
                {
                  "internalType": "contract IERC20",
                  "name": "token",
                  "type": "address"
                }
              ],
              "internalType": "struct WorldWork.Salary",
              "name": "tokenSalary",
              "type": "tuple"
            },
            {
              "internalType": "enum WorldWork.Stage",
              "name": "stage",
              "type": "uint8"
            },
            {
              "internalType": "address",
              "name": "worker",
              "type": "address"
            },
            {
              "internalType": "address[]",
              "name": "applicants",
              "type": "address[]"
            }
          ],
          "internalType": "struct WorldWork.Job[]",
          "name": "",
          "type": "tuple[]"
        }
      ],
      "stateMutability": "view",
      "type": "function"
    },
    {
      "inputs": [
        {
          "internalType": "address",
          "name": "",
          "type": "address"
        },
        {
          "internalType": "uint256",
          "name": "",
          "type": "uint256"
        }
      ],
      "name": "jobs",
      "outputs": [
        {
          "internalType": "address",
          "name": "employer",
          "type": "address"
        },
        {
          "components": [
            {
              "internalType": "uint256",
              "name": "amount",
              "type": "uint256"
            },
            {
              "internalType": "contract IERC20",
              "name": "token",
              "type": "address"
            }
          ],
          "internalType": "struct WorldWork.Salary",
          "name": "stablecoinSalary",
          "type": "tuple"
        },
        {
          "components": [
            {
              "internalType": "uint256",
              "name": "amount",
              "type": "uint256"
            },
            {
              "internalType": "contract IERC20",
              "name": "token",
              "type": "address"
            }
          ],
          "internalType": "struct WorldWork.Salary",
          "name": "tokenSalary",
          "type": "tuple"
        },
        {
          "internalType": "enum WorldWork.Stage",
          "name": "stage",
          "type": "uint8"
        },
        {
          "internalType": "address",
          "name": "worker",
          "type": "address"
        }
      ],
      "stateMutability": "view",
      "type": "function"
    },
    {
      "inputs": [
        {
          "internalType": "address",
          "name": "signal",
          "type": "address"
        },
        {
          "internalType": "uint256",
          "name": "root",
          "type": "uint256"
        },
        {
          "internalType": "uint256",
          "name": "nullifierHash",
          "type": "uint256"
        },
        {
          "internalType": "uint256[8]",
          "name": "proof",
          "type": "uint256[8]"
        }
      ],
      "name": "registerEmployer",
      "outputs": [],
      "stateMutability": "nonpayable",
      "type": "function"
    },
    {
      "inputs": [
        {
          "internalType": "address",
          "name": "signal",
          "type": "address"
        },
        {
          "internalType": "uint256",
          "name": "root",
          "type": "uint256"
        },
        {
          "internalType": "uint256",
          "name": "nullifierHash",
          "type": "uint256"
        },
        {
          "internalType": "uint256[8]",
          "name": "proof",
          "type": "uint256[8]"
        }
      ],
      "name": "registerWorker",
      "outputs": [],
      "stateMutability": "nonpayable",
      "type": "function"
    },
    {
      "inputs": [
        {
          "internalType": "address",
          "name": "employer",
          "type": "address"
        },
        {
          "internalType": "uint256",
          "name": "index",
          "type": "uint256"
        },
        {
          "internalType": "address",
          "name": "testAddress",
          "type": "address"
        }
      ],
      "name": "testApplyForJob",
      "outputs": [],
      "stateMutability": "nonpayable",
      "type": "function"
    },
    {
      "inputs": [
        {
          "internalType": "address",
          "name": "",
          "type": "address"
        }
      ],
      "name": "workers",
      "outputs": [
        {
          "internalType": "bool",
          "name": "",
          "type": "bool"
        }
      ],
      "stateMutability": "view",
      "type": "function"
    }
  ],
  "transactionHash": "0x95d2dde80687a6a2fe85d320ac26a867414ee93f2375690b6f8bca4c20c4d41f",
  "args": [
    "0x11cA3127182f7583EfC416a8771BD4d11Fae4334",
    "app_staging_3aeacead9480597498aa72bc01889e92",
    "regiter-work-user"
  ],
  "numDeployments": 1,
  "solcInputHash": "147b2c37ce8efaa681c7d391930b88dc",
  "bytecode": "0x60e0604052600160c052600380546001600160a01b031916735c383f1afdc3b39dd4367d16cb8bb72605eb08a81790553480156200003c57600080fd5b5060405162001957380380620019578339810160408190526200005f91620001ce565b6001600160a01b038316608052604051620000bd90620000a9906200008990859060200162000258565b604051602081830303815290604052620000ca60201b620011a01760201c565b826040516020016200008992919062000276565b60a052506200029e915050565b6000600882604051602001620000e1919062000258565b60408051601f198184030181529190528051602090910120901c92915050565b634e487b7160e01b600052604160045260246000fd5b60005b83811015620001345781810151838201526020016200011a565b50506000910152565b600082601f8301126200014f57600080fd5b81516001600160401b03808211156200016c576200016c62000101565b604051601f8301601f19908116603f0116810190828211818310171562000197576200019762000101565b81604052838152866020858801011115620001b157600080fd5b620001c484602083016020890162000117565b9695505050505050565b600080600060608486031215620001e457600080fd5b83516001600160a01b0381168114620001fc57600080fd5b60208501519093506001600160401b03808211156200021a57600080fd5b62000228878388016200013d565b935060408601519150808211156200023f57600080fd5b506200024e868287016200013d565b9150509250925092565b600082516200026c81846020870162000117565b9190910192915050565b828152600082516200029081602085016020870162000117565b919091016020019392505050565b60805160a05160c051611674620002e3600039600081816107d20152610d0c0152600081816108340152610d5a0152600081816107a20152610cdc01526116746000f3fe608060405234801561001057600080fd5b50600436106101005760003560e01c80636f82f8fd1161009757806393c3841a1161006657806393c3841a1461026a578063b43c4b271461027d578063ceb35f0a14610290578063dbb52985146102c557600080fd5b80636f82f8fd14610200578063755d2118146102245780637e5864851461024457806392ebada01461025757600080fd5b8063366d2a4b116100d3578063366d2a4b146101a45780634048a257146101b757806349ec8246146101da578063585f6b33146101ed57600080fd5b80630be435bd146101055780630cd07e1c1461013d5780631a3cbef4146101715780632d12169314610191575b600080fd5b61012861011336600461126b565b60016020526000908152604090205460ff1681565b60405190151581526020015b60405180910390f35b61016f61014b36600461126b565b6001600160a01b03166000908152602081905260409020805460ff19166001179055565b005b61018461017f36600461126b565b6102d8565b60405161013491906112c5565b61016f61019f3660046113e6565b610450565b61016f6101b2366004611419565b6105e5565b6101286101c536600461126b565b60006020819052908152604090205460ff1681565b61016f6101e8366004611432565b6106a2565b61016f6101fb366004611480565b610910565b61021361020e366004611480565b610a3e565b6040516101349594939291906114aa565b610237610232366004611480565b610acc565b6040516101349190611516565b61016f610252366004611563565b610b6c565b61016f610265366004611432565b610bdc565b61016f610278366004611480565b610e36565b61016f61028b36600461159f565b610f70565b61016f61029e36600461126b565b6001600160a01b03166000908152600160208190526040909120805460ff19169091179055565b61016f6102d336600461126b565b611048565b6001600160a01b0381166000908152600260209081526040808320805482518185028101850190935280835260609492939192909184015b828210156104455760008481526020908190206040805160c0810182526007860290920180546001600160a01b039081168452825180840184526001808401548252600284015483168288015285870191909152835180850185526003840154815260048401549092169582019590955291830191909152600581015491929091606084019160ff909116908111156103ab576103ab61128d565b60018111156103bc576103bc61128d565b8152600582015461010090046001600160a01b0316602080830191909152600683018054604080518285028101850182528281529401939283018282801561042d57602002820191906000526020600020905b81546001600160a01b0316815260019091019060200180831161040f575b50505050508152505081526020019060010190610310565b505050509050919050565b6001600160a01b0382166000818152600260209081526040808320815160c0810183529485528151808301835260648082528185018690528685019190915282518084018452908152928301849052908401919091529190606082019081526001600160a01b038416602082015260400160005b6040519080825280602002602001820160405280156104ed578160200160208202803683370190505b5090528154600180820184556000938452602093849020835160079093020180546001600160a01b03199081166001600160a01b03948516178255848601518051838501558601516002830180548316918616919091179055604085015180516003840155909501516004820180549096169316929092179093556060820151600582018054939492939192909160ff19169083818111156105915761059161128d565b021790555060808201516005820180546001600160a01b0390921661010002610100600160a81b031990921691909117905560a082015180516105de9160068401916020909101906111d5565b5050505050565b3360009081526001602052604090205460ff166106495760405162461bcd60e51b815260206004820181905260248201527f4f6e6c7920656d706c6f796572732063616e20636f6d706c657465206a6f627360448201526064015b60405180910390fd5b3360009081526002602052604090208054600191908390811061066e5761066e6115c1565b60009182526020909120600560079092020101805460ff19166001838181111561069a5761069a61128d565b021790555050565b60008281526004602052604090205460ff16156106d257604051632ec8265960e11b815260040160405180910390fd5b6001600160a01b03841660009081526020819052604090205460ff16156107375760405162461bcd60e51b815260206004820152601960248201527815dbdc9ad95c88185b1c9958591e481c9959da5cdd195c9959603a1b6044820152606401610640565b6001600160a01b03841660009081526001602052604090205460ff16156107a05760405162461bcd60e51b815260206004820152601b60248201527f456d706c6f79657220616c7265616479207265676973746572656400000000006044820152606401610640565b7f00000000000000000000000000000000000000000000000000000000000000006001600160a01b0316633bc778e3847f00000000000000000000000000000000000000000000000000000000000000006108318860405160200161081d919060609190911b6bffffffffffffffffffffffff1916815260140190565b6040516020818303038152906040526111a0565b867f0000000000000000000000000000000000000000000000000000000000000000876040518763ffffffff1660e01b8152600401610875969594939291906115d7565b60006040518083038186803b15801561088d57600080fd5b505afa1580156108a1573d6000803e3d6000fd5b50505060008381526004602090815260408083208054600160ff1991821681179092556001600160a01b038a168086529385905282852080549091169091179055519092507f39e7e6ae07d889bdbff877aba3aa77fb0f33f79807df2c91a0ac6059849e3e0e9190a250505050565b3360009081526001602052604090205460ff166109795760405162461bcd60e51b815260206004820152602160248201527f4f6e6c7920656d706c6f796572732063616e2061636365707420776f726b65726044820152607360f81b6064820152608401610640565b6001600160a01b03821660009081526020819052604090205460ff166109e15760405162461bcd60e51b815260206004820152601c60248201527f4f6e6c7920776f726b6572732063616e206265206163636570746564000000006044820152606401610640565b336000908152600260205260409020805483919083908110610a0557610a056115c1565b906000526020600020906007020160050160016101000a8154816001600160a01b0302191690836001600160a01b031602179055505050565b60026020528160005260406000208181548110610a5a57600080fd5b600091825260209182902060079091020180546040805180820182526001840154815260028401546001600160a01b039081168287015282518084019093526003850154835260048501548116958301959095526005909301549184169550919350909160ff82169161010090041685565b6001600160a01b038216600090815260026020526040902080546060919083908110610afa57610afa6115c1565b9060005260206000209060070201600601805480602002602001604051908101604052809291908181526020018280548015610b5f57602002820191906000526020600020905b81546001600160a01b03168152600190910190602001808311610b41575b5050505050905092915050565b6001600160a01b0383166000908152600260205260409020805483908110610b9657610b966115c1565b60009182526020808320600792909202909101600601805460018101825590835291200180546001600160a01b0319166001600160a01b03929092169190911790555050565b60008281526004602052604090205460ff1615610c0c57604051632ec8265960e11b815260040160405180910390fd5b6001600160a01b03841660009081526020819052604090205460ff1615610c715760405162461bcd60e51b815260206004820152601960248201527815dbdc9ad95c88185b1c9958591e481c9959da5cdd195c9959603a1b6044820152606401610640565b6001600160a01b03841660009081526001602052604090205460ff1615610cda5760405162461bcd60e51b815260206004820152601b60248201527f456d706c6f79657220616c7265616479207265676973746572656400000000006044820152606401610640565b7f00000000000000000000000000000000000000000000000000000000000000006001600160a01b0316633bc778e3847f0000000000000000000000000000000000000000000000000000000000000000610d578860405160200161081d919060609190911b6bffffffffffffffffffffffff1916815260140190565b867f0000000000000000000000000000000000000000000000000000000000000000876040518763ffffffff1660e01b8152600401610d9b969594939291906115d7565b60006040518083038186803b158015610db357600080fd5b505afa158015610dc7573d6000803e3d6000fd5b50505060008381526004602090815260408083208054600160ff1991821681179092556001600160a01b038a168086529382905282852080549091169091179055519092507f320f0bf1a83ce6d92e80948ac3800b41c7ca41667fc5e5ce639b73129dff3bdb9190a250505050565b3360009081526020819052604090205460ff16610e955760405162461bcd60e51b815260206004820152601f60248201527f4f6e6c7920776f726b6572732063616e206170706c7920666f72206a6f6273006044820152606401610640565b6001600160a01b03821660009081526001602052604090205460ff16610f0e5760405162461bcd60e51b815260206004820152602860248201527f4f6e6c7920656d706c6f796572732063616e2068617665206a6f62206170706c60448201526769636174696f6e7360c01b6064820152608401610640565b6001600160a01b0382166000908152600260205260409020805482908110610f3857610f386115c1565b60009182526020808320600660079093020191909101805460018101825590835291200180546001600160a01b031916331790555050565b3360009081526001602052604090205460ff16610fd95760405162461bcd60e51b815260206004820152602160248201527f4f6e6c7920656d706c6f796572732063616e20616464206a6f62206f666665726044820152607360f81b6064820152608401610640565b336000818152600260209081526040808320815160c081018352948552815180830183528781526003546001600160a01b0316818501819052868501919091528251808401845287815293840152908401919091526060830182905260808301829052919060a08201906104c4565b6001600160a01b038181166000818152600260208181526040808420815160c081018352958652815180830183526064808252818501879052878501918252835180850185529081528085018790528784019081526060880187815260808901889052845188815280870190955260a08901949094528254600180820185559388529685902088516007909802018054978a166001600160a01b031998891617815591518051838501558501519582018054968a169688169690961790955593518051600386015590920151600484018054919097169416939093179094559051600582018054939492939192909160ff191690838181111561114d5761114d61128d565b021790555060808201516005820180546001600160a01b0390921661010002610100600160a81b031990921691909117905560a0820151805161119a9160068401916020909101906111d5565b50505050565b60006008826040516020016111b5919061160f565b60408051601f198184030181529190528051602090910120901c92915050565b82805482825590600052602060002090810192821561122a579160200282015b8281111561122a57825182546001600160a01b0319166001600160a01b039091161782556020909201916001909101906111f5565b5061123692915061123a565b5090565b5b80821115611236576000815560010161123b565b80356001600160a01b038116811461126657600080fd5b919050565b60006020828403121561127d57600080fd5b6112868261124f565b9392505050565b634e487b7160e01b600052602160045260246000fd5b600281106112c157634e487b7160e01b600052602160045260246000fd5b9052565b60006020808301818452808551808352604092508286019150828160051b8701018488016000805b848110156113d757898403603f19018652825180516001600160a01b03908116865289820151610100918288019161133a8d8a0182805182526020908101516001600160a01b0316910152565b508a8401516060611360818b0183805182526020908101516001600160a01b0316910152565b850151905060a06113738a8201836112a3565b6080860151831660c08b01529094015160e0890193909352825191829052918b01925061012087019185915b808310156113c157845182168452938c0193928c01926001929092019161139f565b50505096890196945050918701916001016112ed565b50919998505050505050505050565b600080604083850312156113f957600080fd5b6114028361124f565b91506114106020840161124f565b90509250929050565b60006020828403121561142b57600080fd5b5035919050565b60008060008061016080868803121561144a57600080fd5b6114538661124f565b9450602086013593506040860135925086818701111561147257600080fd5b509295919450926060019150565b6000806040838503121561149357600080fd5b61149c8361124f565b946020939093013593505050565b6001600160a01b03868116825260e08201906114dc6020840188805182526020908101516001600160a01b0316910152565b8551606084015260208601516001600160a01b0316608084015261150360a08401866112a3565b80841660c0840152509695505050505050565b6020808252825182820181905260009190848201906040850190845b818110156115575783516001600160a01b031683529284019291840191600101611532565b50909695505050505050565b60008060006060848603121561157857600080fd5b6115818461124f565b9250602084013591506115966040850161124f565b90509250925092565b600080604083850312156115b257600080fd5b50508035926020909101359150565b634e487b7160e01b600052603260045260246000fd5b60006101a0820190508782528660208301528560408301528460608301528360808301526101008360a0840137979650505050505050565b6000825160005b818110156116305760208186018101518583015201611616565b50600092019182525091905056fea26469706673582212201bdcebd9e6c89d45578d090182b977a841608309eff93a46e802e5bbb83e48b664736f6c63430008110033",
  "devdoc": {
    "kind": "dev",
    "methods": {
      "constructor": {
        "params": {
          "_actionId": "The World ID action ID",
          "_appId": "The World ID app ID",
          "_worldId": "The WorldID instance that will verify the proofs"
        }
      },
      "registerEmployer(address,uint256,uint256,uint256[8])": {
        "details": "Feel free to rename this method however you want! We've used `claim`, `verify` or `execute` in the past.",
        "params": {
          "nullifierHash": "The nullifier hash for this proof, preventing double signaling (returned by the JS widget).",
          "proof": "The zero-knowledge proof that demonstrates the claimer is registered with World ID (returned by the JS widget).",
          "root": "The root of the Merkle tree (returned by the JS widget).",
          "signal": "An arbitrary input from the user, usually the user's wallet address (check README for further details)"
        }
      },
      "registerWorker(address,uint256,uint256,uint256[8])": {
        "details": "Feel free to rename this method however you want! We've used `claim`, `verify` or `execute` in the past.",
        "params": {
          "nullifierHash": "The nullifier hash for this proof, preventing double signaling (returned by the JS widget).",
          "proof": "The zero-knowledge proof that demonstrates the claimer is registered with World ID (returned by the JS widget).",
          "root": "The root of the Merkle tree (returned by the JS widget).",
          "signal": "An arbitrary input from the user, usually the user's wallet address (check README for further details)"
        }
      }
    },
    "stateVariables": {
      "externalNullifier": {
        "details": "The contract's external nullifier hash"
      },
      "groupId": {
        "details": "The World ID group ID (always 1)"
      },
      "nullifierHashes": {
        "details": "Whether a nullifier hash has been used already. Used to guarantee an action is only performed once by a single person"
      },
      "worldId": {
        "details": "The World ID instance that will be used for verifying proofs"
      }
    },
    "version": 1
  },
  "userdoc": {
    "errors": {
      "InvalidNullifier()": [
        {
          "notice": "Thrown when attempting to reuse a nullifier"
        }
      ]
    },
    "kind": "user",
    "methods": {},
    "version": 1
  },
  "storageLayout": {
    "storage": [
      {
        "astId": 115,
        "contract": "contracts/WorldWork.sol:WorldWork",
        "label": "workers",
        "offset": 0,
        "slot": "0",
        "type": "t_mapping(t_address,t_bool)"
      },
      {
        "astId": 119,
        "contract": "contracts/WorldWork.sol:WorldWork",
        "label": "employers",
        "offset": 0,
        "slot": "1",
        "type": "t_mapping(t_address,t_bool)"
      },
      {
        "astId": 125,
        "contract": "contracts/WorldWork.sol:WorldWork",
        "label": "jobs",
        "offset": 0,
        "slot": "2",
        "type": "t_mapping(t_address,t_array(t_struct(Job)105_storage)dyn_storage)"
      },
      {
        "astId": 145,
        "contract": "contracts/WorldWork.sol:WorldWork",
        "label": "tokenDWL",
        "offset": 0,
        "slot": "3",
        "type": "t_address"
      },
      {
        "astId": 150,
        "contract": "contracts/WorldWork.sol:WorldWork",
        "label": "nullifierHashes",
        "offset": 0,
        "slot": "4",
        "type": "t_mapping(t_uint256,t_bool)"
      }
    ],
    "types": {
      "t_address": {
        "encoding": "inplace",
        "label": "address",
        "numberOfBytes": "20"
      },
      "t_array(t_address)dyn_storage": {
        "base": "t_address",
        "encoding": "dynamic_array",
        "label": "address[]",
        "numberOfBytes": "32"
      },
      "t_array(t_struct(Job)105_storage)dyn_storage": {
        "base": "t_struct(Job)105_storage",
        "encoding": "dynamic_array",
        "label": "struct WorldWork.Job[]",
        "numberOfBytes": "32"
      },
      "t_bool": {
        "encoding": "inplace",
        "label": "bool",
        "numberOfBytes": "1"
      },
      "t_contract(IERC20)77": {
        "encoding": "inplace",
        "label": "contract IERC20",
        "numberOfBytes": "20"
      },
      "t_enum(Stage)88": {
        "encoding": "inplace",
        "label": "enum WorldWork.Stage",
        "numberOfBytes": "1"
      },
      "t_mapping(t_address,t_array(t_struct(Job)105_storage)dyn_storage)": {
        "encoding": "mapping",
        "key": "t_address",
        "label": "mapping(address => struct WorldWork.Job[])",
        "numberOfBytes": "32",
        "value": "t_array(t_struct(Job)105_storage)dyn_storage"
      },
      "t_mapping(t_address,t_bool)": {
        "encoding": "mapping",
        "key": "t_address",
        "label": "mapping(address => bool)",
        "numberOfBytes": "32",
        "value": "t_bool"
      },
      "t_mapping(t_uint256,t_bool)": {
        "encoding": "mapping",
        "key": "t_uint256",
        "label": "mapping(uint256 => bool)",
        "numberOfBytes": "32",
        "value": "t_bool"
      },
      "t_struct(Job)105_storage": {
        "encoding": "inplace",
        "label": "struct WorldWork.Job",
        "members": [
          {
            "astId": 90,
            "contract": "contracts/WorldWork.sol:WorldWork",
            "label": "employer",
            "offset": 0,
            "slot": "0",
            "type": "t_address"
          },
          {
            "astId": 93,
            "contract": "contracts/WorldWork.sol:WorldWork",
            "label": "stablecoinSalary",
            "offset": 0,
            "slot": "1",
            "type": "t_struct(Salary)111_storage"
          },
          {
            "astId": 96,
            "contract": "contracts/WorldWork.sol:WorldWork",
            "label": "tokenSalary",
            "offset": 0,
            "slot": "3",
            "type": "t_struct(Salary)111_storage"
          },
          {
            "astId": 99,
            "contract": "contracts/WorldWork.sol:WorldWork",
            "label": "stage",
            "offset": 0,
            "slot": "5",
            "type": "t_enum(Stage)88"
          },
          {
            "astId": 101,
            "contract": "contracts/WorldWork.sol:WorldWork",
            "label": "worker",
            "offset": 1,
            "slot": "5",
            "type": "t_address"
          },
          {
            "astId": 104,
            "contract": "contracts/WorldWork.sol:WorldWork",
            "label": "applicants",
            "offset": 0,
            "slot": "6",
            "type": "t_array(t_address)dyn_storage"
          }
        ],
        "numberOfBytes": "224"
      },
      "t_struct(Salary)111_storage": {
        "encoding": "inplace",
        "label": "struct WorldWork.Salary",
        "members": [
          {
            "astId": 107,
            "contract": "contracts/WorldWork.sol:WorldWork",
            "label": "amount",
            "offset": 0,
            "slot": "0",
            "type": "t_uint256"
          },
          {
            "astId": 110,
            "contract": "contracts/WorldWork.sol:WorldWork",
            "label": "token",
            "offset": 0,
            "slot": "1",
            "type": "t_contract(IERC20)77"
          }
        ],
        "numberOfBytes": "64"
      },
      "t_uint256": {
        "encoding": "inplace",
        "label": "uint256",
        "numberOfBytes": "32"
      }
    }
  }
}